:020000040800F2
:100000005005002049010008B31800080516000833
:10001000B118000825030008A51D00080000000015
:10002000000000000000000000000000ED190008C2
:100030002703000800000000B5180008EF190008A9
:100040006301000863010008630100086301000800
:1000500063010008630100086301000863010008F0
:1000600063010008630100086301000863010008E0
:1000700063010008630100086301000863010008D0
:1000800063010008630100086301000863010008C0
:1000900063010008630100086301000863010008B0
:1000A00063010008630100086301000863010008A0
:1000B0006301000863010008630100086301000890
:1000C0006301000863010008630100086301000880
:1000D0006301000863010008630100086301000870
:1000E0002903000863010008630100086301000898
:1000F0006301000863010008630100086301000850
:10010000630100086301000863010008630100083F
:10011000630100086301000863010008630100082F
:10012000630100086301000863010008630100081F
:10013000DFF810D000F06EF800480047E12000081A
:10014000AFF300805005002006488047064800476E
:10015000FEE7FEE7FEE7FEE7FEE7FEE7FEE7FEE777
:10016000FEE7FEE7511A000831010008202A04DBEF
:10017000203A21FA02F00021704721FA02F3D04020
:10018000C2F120029140084319467047D2B201E003
:1001900000F8012B491EFBD270470022F6E710B58C
:1001A00013460A4604461946FFF7F0FF204610BDE5
:1001B0002DE9F05F0546002092469B46884606469C
:1001C000814640241BE02846414647462246FFF729
:1001D000CDFF53465A46C01A914110D311461846D6
:1001E000224600F029F82D1A67EB01084F462246F7
:1001F0000120002100F020F817EB00094E41201EDD
:10020000A4F10104DFDC484631462A464346BDE8F6
:10021000F09F0000064C074D06E0E06840F0010347
:1002200094E8070098471034AC42F6D3FFF784FFF8
:10023000BC210008DC210008202A04DB203A00FA57
:1002400002F1002070479140C2F1200320FA03F32D
:1002500019439040704700002DE9F0410B4F0C46C8
:1002600005464FF4005600223146384600F09CF90E
:1002700042F2107322462946054800F03BFD314604
:100280003846BDE8F041012200F08EB9002001405F
:1002900020000020010404D5C043401CC0F30E0020
:1002A000404241F288314843C11700EB5140C0132E
:1002B0007047000010B5012251030D4800F074F999
:1002C0000C4C00228021204600F06EF90122802192
:1002D000204600F069F901228021204600F064F9EF
:1002E00020460022BDE81040802100F05DB90000EA
:1002F00000200140000C01400021014801F062B8DB
:100300007800002010B50021044801F0B5F8012262
:10031000BDE810405103024800F046B978000020C3
:1003200000200140FEE770474FF4004000F02CB879
:1003300072B6FEE770B5044600F03CF90546601C55
:1003400002D004480078044400F034F9401BA04275
:10035000FAD370BD0C00002010B5B0F5004F10D1DD
:10036000084C608802280AD2211D01EB800002217E
:10037000FFF772FF6088401C6080002000E00120D1
:10038000207010BD00000020044910B50A68024228
:1003900002D00860FFF7E0FF10BD00001404014028
:1003A0002DE9F84FDFF8C8910024A9F1040B23468A
:1003B0000F2709F1040AABF1040ED1E00125A54095
:1003C00006EA0502AA4276D1DFF8A8C14E68A6EB7C
:1003D0000C0866452BD00DDC032E34D005DC36B37B
:1003E000012E19D0022E2FD11BE0112E16D0122E65
:1003F0002AD119E0B8F5881F19D006DCB8F5803F7E
:1004000015D0B8F5801F1FD111E0B8F5001F0ED030
:10041000B8F5041F18D10AE0CB6815E0CB681B1DA6
:1004200012E0CB6808330FE0CB680C330CE08B682C
:100430002BB1012B4FF0080303D0456104E00423E6
:1004400002E0056100E00023FF2A01D8064601E032
:1004500000F104064FEA840501D9A5F12005D6F87C
:10046000008007FA05FC28EA0C0803FA05F548EABB
:100470000508C6F800804D68ED0070D53E4DAE69A8
:1004800046F00106AE61AD6924F0030605F00105F2
:1004900000953A4D06EB050CDCF80850A607360F20
:1004A00007FA06F825EA0805DFF8D480404503D1AD
:1004B0004FF0000825E052E0DFF8C880404502D147
:1004C0004FF001081DE0DFF8C080404502D14FF039
:1004D000020816E0DFF8B480404502D14FF003086F
:1004E0000FE0DFF8AC80404502D14FF0040808E08F
:1004F000DFF8A080404502D14FF0050801E04FF041
:10050000060808FA06F848EA0508CCF808804D689D
:10051000D9F80060ED024D4601D5164300E0964340
:100520002E604D68DAF80060AD02554601D51643DD
:1005300000E096432E604D68DBF80060AD035D4639
:1005400001D5164300E096432E604D68DEF800604A
:10055000ED03754601D5164300E096432E60641CFA
:100560000A681646E2407FF429AFBDE8F88F000024
:10057000080401400000111000100240000001407A
:1005800000080140000C014000100140001401402F
:1005900000180140001C0140C26821EA02030A4021
:1005A00043EA0241016170470AB1016170470904E1
:1005B000FBE7000001488068704700000C00002045
:1005C0000248816802781144816070470C00002065
:1005D000074810B5016841F010010160032000F0E8
:1005E00079F8002000F006F800F024F8002010BD93
:1005F0000020024070B50D4D04464FF47A71287802
:10060000B1FBF0F00A490968B1FBF0F000F014FD0D
:1006100048B9102C07D200222146501E00F03AF8AB
:1006200000206C6070BD012070BD00000C00002037
:10063000180000200E4808B5816941F00101816170
:10064000816901F001010091C16941F08051C161EE
:10065000C06900F080500090052000F03BF805488C
:10066000416821F0E06141F00071416008BD000087
:100670000010024000000140002809DB00F01F02CA
:10068000012191404009800000F1E020C0F80011F4
:1006900070470000F0B40E4B1B680C46C3F30223F6
:1006A000C3F10705042D00D90425191D072901D21E
:1006B000002300E0DB1E012606FA05F1491E214059
:1006C00099409E40761E16403143F0BC01F07CBB41
:1006D0000CED00E0064900F0070208684FF6FF0342
:1006E000184040EA0220034A1043086070470000A7
:1006F0000CED00E00000FA052DE9F0470F4605007B
:1007000061D0434E306800F00700B84209D230682B
:1007100020F0070038433060306800F00700B8422E
:1007200051D128683B4C810712D5400703D560683A
:1007300040F4E06060602878000703D5606840F40A
:10074000605060606068A96820F0F0000843606055
:100750002878C00728D06868012810D021680228AE
:1007600010D0890700292EDA616821F003010143C6
:100770006160FFF71FFF804641F288390DE0216874
:100780008903EFE78901EDE7FFF714FFA0EB08010C
:10079000494502D90320BDE8F0876068696800F028
:1007A0000C00B0EB810FEFD1306800F00700B842C9
:1007B0000BD9306820F0070038433060306800F013
:1007C0000700B84201D00120E5E72878400705D5A9
:1007D0006068E96820F4E0600843606028780007FA
:1007E00006D56068296920F4605040EAC100606065
:1007F00000F038F86168084AC1F30311515CC84041
:100800000649086006480068FFF7F4FE0020C2E7CA
:100810000020024000100240A22100081800002021
:10082000100000200448054900684968044AC1F3E3
:100830000221515CC840704718000020001002409F
:10084000B22100080448054900684968044AC1F318
:10085000C221515CC84070471800002000100240BF
:10086000B22100080E4A51680E4801F00C03042B17
:1008700011D0082B0FD10C48C1F38343C903C05CCE
:100880000AD55168084AC1F34041921E515C054A9D
:100890005043B0FBF1F070470449484370470000F3
:1008A0000010024000127A009221000800093D0069
:1008B0002DE9F84F040070D02078C04DC00749D012
:1008C0006868C0F38100012807D06868C0F3810020
:1008D000022809D16868C00306D52868800339D585
:1008E00060680028E7D035E06068B0F5803F0BD045
:1008F00010B1B0F5A02F11D0286820F48030286006
:10090000286820F4802002E0286840F480302860C5
:10091000606890B1FFF74EFE06460AE0286840F492
:1009200080202860F0E700BFFFF744FE801B6428AA
:1009300073D828688003F7D50CE0FFF73BFE064626
:1009400005E000BFFFF736FE801B6428F0D828685A
:100950008003F7D420789A4E80074FF001094FF0BA
:10096000000839D5686810F00C0F07D06868C0F32C
:100970008100022809D16868C00306D4286880076E
:1009800014D52069012808D110E02069B0B1C6F85B
:100990000090FFF70FFE074605E00AE1FFF70AFEA9
:1009A000C01B0228C4D828688007F7D52868616969
:1009B00020F0F80040EAC10028600DE0C6F8008091
:1009C000FFF7F8FD074604E0FFF7F4FDC01B02281F
:1009D00023D828688007F7D4207800072CD57948D9
:1009E000A169D9B1C0F80090FFF7E4FD074604E023
:1009F000FFF7E0FDC01B02280FD8686A8007F7D513
:100A000071484FF4FA510068B0FBF1F0009000BF5C
:100A10000098411E0091FAD20EE080E0C0F80080FC
:100A2000FFF7C8FD074604E0FFF7C4FDC01B02281E
:100A300075D8686A8007F7D42078400760D5E869E0
:100A40000027C00008D4E86940F08050E861E869F8
:100A5000012700F0805000905C480168C90513D45C
:100A60000168834641F480710160FFF7A3FD82466F
:100A700006E000BFFFF79EFDA0EB0A0064284ED8F9
:100A8000DBF80000C005F5D5E06801280AD008B100
:100A9000052813D0286A20F001002862286A20F077
:100AA000040002E0286A40F001002862E06841F298
:100AB000883B98B1FFF77EFD82460BE0286A40F044
:100AC00004002862EEE700BFFFF774FDA0EB0A0107
:100AD00059455AD8286A8007F6D50CE0FFF76AFD19
:100AE000824605E0FFF766FDA0EB0A0159454CD8A8
:100AF000286A8007F6D41FB1E86920F08050E861C9
:100B0000E06988B36968C1F38101022944D00228F1
:100B1000C6F8608004D0FFF74DFD044638E034E0AD
:100B2000FFF748FD074604E0FFF744FDC01B02281D
:100B30002BD828688001F7D4206AB0F5803F05D112
:100B40006868A16820F4003008436860D4E90801AF
:100B50000843696821F4741108436860C6F860901E
:100B6000FFF728FD044606E025E000BFFFF722FD61
:100B7000001B022809D828688001F7D51BE000BFB8
:100B8000FFF718FD001B022802D90320BDE8F88FEB
:100B900028688001F4D40EE00128F7D06868226A42
:100BA00000F48031914204D1616A00F470108842EF
:100BB00001D00120EAE70020E8E700000010024031
:100BC00000004242800442421800002000700040B1
:100BD00070B5040009D0606A002540B125616561E7
:100BE000A56294F8510040B10CE0012070BD60682E
:100BF000B0F5827FF4D0E561F2E784F850502046EA
:100C000000F040F8022084F851002068016821F0CB
:100C100040010160A088218900F4827001F4044140
:100C20000843A18901F400610843217C01F002011D
:100C30000843217D01F001010843218B01F400717B
:100C40000843217F01F03801084394F8201001F097
:100C500080010843218D01F4005108432168086098
:100C6000A069042101EA1040216848602068C16938
:100C700021F40061C1616565012084F85100002004
:100C800070BD000030B585B000240094019402943A
:100C9000039400681449884223D11448816941F4BF
:100CA00080518161816901F480510491816941F031
:100CB0000401816180690E4D00F004000490A020C1
:100CC0000090022001900320039069462846FFF718
:100CD00067FB4020CDE90004694628460294FFF7EF
:100CE0005FFB05B030BD0000003001400010024045
:100CF000000801402DE9F84F044690F8510098464D
:100D000016460F460025012801D0022598E06068AC
:100D10004FF0040BB0F5827F01D1A068F8B194F8D0
:100D20005000012826D04FF0010984F85090FFF7B9
:100D300041FC8246002F7FD0002E7DD084F851B038
:100D400000206065A763A687E6872063A086E0860B
:100D500020646064A068B0F5004F0DD016E084F800
:100D600051B013460A462046CDF8008000F06DF8D9
:100D7000BDE8F88F0220FBE72068016821F0400100
:100D800001602068016821F48041016020680168E9
:100D9000490603D4016841F040010160E068D8B120
:100DA0003BE020688168C90709D0007BA16B08700F
:100DB000A06B401CA063E08F401EE0870CE0FFF7B3
:100DC000F9FBA0EB0A01414503D3B8F1FF3F03D083
:100DD00006E0B8F1000F03D0E08F0028E1D11FE05A
:100DE00003252BE020688168C90709D0C068A16B82
:100DF0000880A06B801CA063E08F401EE0870CE0A1
:100E0000FFF7D8FBA0EB0A01414503D3B8F1FF3F40
:100E100003D0E5E7B8F1000FE2D0E08F0028E1D180
:100E200052464146204600F046FD08B1202060654C
:100E3000606D00E000E008B1012501E084F8519008
:100E4000002084F85000284692E72DE9FF4F81B03A
:100E5000044690F8500000260E9F1D4693464FF022
:100E6000010901280FD04FF0010A84F850A0FFF7C4
:100E7000A1FB804694F85100616801280DD0B1F5BE
:100E8000827F08D103E0022005B0BDE8F08FA168A1
:100E900009B9042801D00226C9E00298002865D0CB
:100EA000BBF1000FFBD0002DF9D094F851000428BD
:100EB00002D0052084F8510000206065C4F838B0E5
:100EC000E587A58702992163E586A586206460648D
:100ED00020680168490603D4016841F040010160BF
:100EE000E068B0F5006F606803D0F0B3012D47D023
:100EF00081E008B1012D3CD1206B21680088C860D9
:100F0000206B801C2063E08E401EE08631E020686C
:100F1000816889070FD5E18E69B1B9F1010F0AD156
:100F2000216B0988C160206B801C2063E08E401E0D
:100F3000E0864FF0000920688168C9070CD0E18F76
:100F400051B1C068A16B0880A06B801CA063E08FCA
:100F5000401EE0874FF00109FFF72CFBA0EB0800D3
:100F6000B84206D3781C04D001E009E05BE0032618
:100F70005BE0E08E0028CAD1E08F0028C7D140E0B6
:100F8000206B216800780873206B401C2063E08E82
:100F9000401EE0862FE02068816889070FD5E18E2A
:100FA00069B1B9F1010F0AD1216B09780173206B86
:100FB000401C2063E08E401EE0864FF00009206850
:100FC0008168C9070CD0E18F51B1C068A16B08706E
:100FD000A06B401CA063E08F401EE0874FF001092A
:100FE000FFF7E8FAA0EB0800B84202D3781C02D061
:100FF000BAE7002FB8D0E08E0028CCD1E08F0028CF
:10100000C9D142463946204600F083FC18B101267A
:10101000202060650BE0A06818B92068C16880686E
:101020000090606D08B1012601E084F851A0002015
:1010300084F85000304627E710B5401EB0F1807F9D
:1010400001D3012010BD4FF0E02460610F21601733
:1010500000F0BAFE0020A06107202061002010BD32
:1010600070B590F83C20012A2CD0012480F83C4037
:10107000022280F83D2003685A689D6822F07006BD
:101080000A6832435A60104B02689A420ED00F4BE6
:101090009A420BD0B2F1804F08D00D4B9A4205D046
:1010A0000C4B9A4202D00C4B9A4204D1496825F06D
:1010B00080031943916080F83D40002180F83C1086
:1010C000084670BD022070BD002C01400034014074
:1010D0000004004000080040000C004010B504006F
:1010E00003D094F83D0010B107E0012010BD0020AE
:1010F00084F83C00204600F01FF8022084F83D00F0
:10110000211D206800F0A6FC012084F8460084F828
:101110003E0084F83F0084F8400084F8410084F8E1
:10112000420084F8430084F8440084F8450084F8C1
:101130003D00002010BD000008B500680649884247
:1011400008D10648C16941F00201C161C06900F0DF
:101150000200009008BD00000004004000100240A2
:1011600070B5044690F83C000025012817D00126F0
:1011700084F83C60022084F83D002068826822F0F8
:10118000770222F47F4282600868502838D00DDC54
:1011900020284FD005DC90B3102811D14AE002205E
:1011A00070BD302846D040280AD13BE060282FD0BF
:1011B00070280DD0B0F5805F03D0B0F5005F12D07D
:1011C000012584F83D60002084F83C00284670BD6D
:1011D000CB68D1E90121206800F08FFC206881688C
:1011E00041F0770109E0CB68D1E90121206800F0E6
:1011F00084FC2068816841F480418160E1E719E066
:10120000CA684968206800F04DFD5021206806E05A
:10121000CA684968206800F056FD6021206800F027
:1012200076FCCEE7CA684968206800F03BFD4021A3
:101230002068F4E7226801461046F0E700B585B063
:101240000021009101910291039100680F498842A9
:101250001AD10F48816941F00801816180696946AE
:1012600000F00800049010200090022001900390EC
:101270000848FFF795F80848416821F4406141F0BB
:10128000E06141F40061416005B000BD0004004030
:1012900000100240000C01400000014070B50446FF
:1012A00090F83C0000260D4601280FD0012084F85C
:1012B0003C006AB1042A1DD0082A2FD00C2A3FD046
:1012C0000126002084F83C00304670BD022070BD2D
:1012D000206800F025FC2068816941F008018161E7
:1012E0002068816921F004018161206881692A698F
:1012F000114311E0206800F043FC2068816941F44B
:10130000006181612068816921F4806181612068C8
:1013100081692A6941EA02218161D2E7206800F0EF
:1013200065FC2068C16941F00801C1612068C1699C
:1013300021F00401C1612068C1692A69114311E0EB
:10134000206800F087FC2068C16941F40061C16138
:101350002068C16921F48061C1612068C1692A697E
:1013600041EA0221C161ACE710B5040003D094F852
:101370003D0010B107E0012010BD002084F83C00C2
:10138000204600F01EF8022084F83D00211D206850
:1013900000F060FB012084F8460084F83E0084F8E9
:1013A0003F0084F8400084F8410084F8420084F84B
:1013B000430084F8440084F8450084F83D00002090
:1013C00010BD704710B50446022249B104290ED061
:1013D000082913D094F84100012816D0012010BD2F
:1013E00094F83E000128F9D184F83E200FE094F8EB
:1013F0003F000128F2D184F83F2008E094F8400033
:101400000128EBD184F8402001E084F8412001223A
:10141000206800F065FB13492068134A884201D018
:10142000904203D1436C43F40043436420688842F4
:101430000DD090420BD0B0F1804F08D00B498842BC
:1014400005D00B49884202D00A49884204D18168FC
:1014500001F00701062903D0016841F00101016094
:10146000002010BD002C0140003401400004004069
:1014700000080040000C004030B504460D460068EE
:10148000002200F02DFB194B41F2111120688A1047
:10149000984202D0164B984209D1036A0B4206D1FA
:1014A000036A134203D1436C23F40043436420686E
:1014B000036A0B4206D1016A114203D1016821F08F
:1014C0000101016001203DB1042D08D0082D09D093
:1014D00084F84100002030BD84F83E00FAE784F82B
:1014E0003F00F7E784F84000F4E70000002C0140DB
:1014F0000034014070B5040004D094F84100002588
:1015000010B106E0012070BD84F84050204600F084
:1015100023F8242084F841002068C16821F4005198
:10152000C160204600F0E2FB2068016921F490418F
:1015300001612068416921F02A0141612068C16888
:1015400041F40051C1606564202084F8410084F8B2
:1015500042006563002070BD70B586B00024009421
:10156000019402940394234E03682349022003222A
:10157000224DB34219D18B6943F480438B618B694F
:1015800003F4804304938B6943F004038B618969FE
:10159000039201F0040104910102CDE900106946B3
:1015A0002846FEF7FDFE28151BE0154EB3421FD15D
:1015B000CB6943F40033CB61CB6903F4003304936C
:1015C0008B6943F004038B618969039201F0040184
:1015D00004910421CDE9001069462846FEF7E0FE9B
:1015E0000820CDE90004694628460294FEF7D8FE9B
:1015F00006B070BD003801400010024000080140F4
:1016000000440040FEE700002DE9F04F85B00025C2
:101610004B480095019502950395816941F0400181
:101620008161816901F040010491816941F01001FB
:101630008161816901F010010491816941F0040127
:101640008161816901F004010491816941F0200107
:101650008161816901F020010491816941F4807107
:101660008161816901F480710491816941F008010F
:1016700081618069334E00F008000490002220212F
:101680003046FEF791FFDFF8C0A0012280215046CE
:10169000FEF78AFFDFF8B4B000224FF4A0415846AD
:1016A000FEF782FF012251035846FEF77DFF00221C
:1016B000E8212748FEF778FF20274FF003094FF075
:1016C00011080124CDF80C900097CDE901846946FA
:1016D0003046FEF765FE802002268DE871006946DF
:1016E0005046FEF75DFE4FF4E0408DE8710069461C
:1016F0005846FEF755FEE00300901648CDE9010478
:1017000069465846FEF74CFEC8208DE871006946D0
:101710000F48FEF745FECDF80C900097CDE9018407
:1017200069460B48FEF73CFE022200212820FEF706
:10173000B1FF2820FEF7A0FF05B0BDE8F08F000044
:101740000010024000180140001401400020014038
:10175000000C014000002110114810B50F49016034
:101760004FF48271416000214FF40062C0E902121F
:101770000222C0E90421120282610822C0E9072185
:10178000416281620A21C162FFF722FA002803D078
:10179000BDE81040FEF7CCBD10BD00000030014098
:1017A0002000002010B58EB00024079408940994FE
:1017B0000A940B941C2168460C94FEF7EEFC1F481B
:1017C0001D4901602321C0E9011440F2E731C0E95D
:1017D00003148461FFF782FC08B1FEF7A9FD4FF402
:1017E0008050079007A91548FFF7BAFC08B1FEF72B
:1017F0009FFD1248FFF7B8FD08B1FEF799FD0B9465
:101800000BA90E480C94FFF72BFC08B1FEF790FDD6
:101810006020009040F2E630CDE9010400226946E4
:1018200006480494FFF73AFD08B1FEF781FD03482E
:10183000FFF704FD0EB010BD00040040780000204A
:101840000C4810B50A4901604FF4E13141600021B4
:1018500081600C22C160C0E904128161C161FFF79F
:1018600049FE002803D0BDE81040FEF761BD10BD61
:1018700000380140C00000200C4810B50A49016042
:101880004FF4E1314160002181600C22C160C0E968
:1018900004128161C161FFF72DFE002803D0BDE86D
:1018A0001040FEF745BD10BD004400400801002077
:1018B000FEE7FEE77047F8B5044640684FF48273D0
:1018C000984217D1A0684FF48065B0F5004F01D061
:1018D000A8420FD12068066826F0400606606068BE
:1018E000984207D1A068A84204D100920B4600227A
:1018F000012103E000920B4600228021204600F0E7
:1019000019F8002804D0606D40F0200060650320C5
:10191000F8BD38B50B46009204460022802100F045
:1019200009F8002804D0606D40F0200060650320B5
:1019300038BD00002DE9F8431E469146884604460E
:10194000089DFEF737FE401B351AFEF733FE0746AB
:1019500025480068C0F3CB30684338E0701C37D0AE
:10196000FEF728FEC01BA84203D215B1009860B351
:101970002CE02068416821F0E00141606068B0F52A
:10198000827F0BD1A068B0F5004F02D0B0F5806F18
:1019900004D12068016821F040010160A06AB0F51F
:1019A000005F09D12068016821F4005101602068BE
:1019B000016841F400510160012084F851000020C9
:1019C00084F850000320BDE8F8830025401E0090F5
:1019D0002068816838EA010004D000214945BDD162
:1019E0000020F0E70121F9E7180000207047FEF71A
:1019F000E7BD30B58FB028216846FEF7CEFB142135
:101A00000AA8FEF7CAFB01210804CDE90010002452
:101A1000029402250491CDE907504FF4E01009909B
:101A20006846FEF745FF08B172B6FEE70F20CDE924
:101A30000A054FF48060CDE90C4002210AA80E94FB
:101A4000FEF75AFE002801D072B6FEE70FB030BD97
:101A500070470000F0B502681C4B1D4D1D4E1E4F17
:101A60001E4C4FF0804C984209D0A04207D06045F0
:101A700005D0A84203D0B04201D0B84204D122F030
:101A8000700E4A6842EA0E02984209D0A04207D07E
:101A9000604505D0A84203D0B04201D0B84203D17E
:101AA00022F44075CA682A434D6922F080022A4315
:101AB00002608A68C2620A688262984201D0A042CB
:101AC00001D10969016301214161F0BD002C014090
:101AD0000004004000080040000C004000340140B9
:101AE00010B501F01F030121046A99408C43046280
:101AF000016A9A401143016210BD10B5846842EA40
:101B0000032224F47F440A432243826010BD82688A
:101B100022F070020A4342F0070181607047000022
:101B2000F0B5036A026A22F0010202624268846927
:101B3000124E24F073050C682C4323F002058B68C9
:101B40002B430D4DA84201D0B04205D123F0080728
:101B5000CB683B4323F00403A84201D0B04205D137
:101B60004D6922F4407215438A692A4342608461B8
:101B7000496841630362F0BD002C0140003401401C
:101B8000F0B5026A036A23F01003036243688469B4
:101B90000D6824F4E64444EA05248D6822F020020E
:101BA00042EA05120F4D104EA84201D0B04206D1B4
:101BB000CF6822F0800242EA071222F04002A842D7
:101BC00001D0B04207D14D6923F4406343EA850355
:101BD0008D6943EA850343608461496881630262D9
:101BE000F0BD0000002C014000340140F0B5026A55
:101BF000036A23F4807303624368C46922F40072A9
:101C000024F073050C68124E2C438D6842EA0522BD
:101C10000E4DA84201D0B04206D1CF6822F4006236
:101C200042EA072222F48062A84201D0B04207D1E2
:101C30004D6923F4405343EA05138D6943EA0513C4
:101C40004360C4614968C1630262F0BD002C014079
:101C50000034014030B5046A026A22F48052026204
:101C60004268C3690D6823F4E64343EA05238D689F
:101C700024F4005444EA0534084DA84202D0084D2B
:101C8000A84204D14D6922F4804242EA85124260A2
:101C9000C36149680164046230BD0000002C01404A
:101CA0000034014010B5036A046A24F001040462A0
:101CB000846924F0F00444EA021423F00A020A437F
:101CC0008461026210BD10B5036A046A24F0100436
:101CD0000462846923F0A00324F4704444EA0232CD
:101CE00043EA01118261016210BD000070B5044633
:101CF00000680169E26821F44051114301612169E2
:101D0000A0680843616908432168CA6841F20C630E
:101D10009A430243CA6020684169A26921F4407174
:101D2000114341611E492068884202D1FEF78AFDB5
:101D300001E0FEF777FD00EBC00101EB00126068E7
:101D400064218000B2FBF0F3B3FBF1F36FF01806EF
:101D50007343B2FBF0F5B2FBF0F605EB83053223DB
:101D600003EB0515B5FBF1F5B6FBF1F605F0F00553
:101D700005EB0615B2FBF0F6B2FBF0F0B0FBF1F0AC
:101D80006FF01802504306EB800003EB0010B0FB2D
:101D9000F1F0216800F00F002844886070BD000059
:101DA00000380140FEE700000FB4054B10B503A951
:101DB000044A029800F028F810BC5DF814FB0000FB
:101DC000C92000081C0000200907090E002804DBB8
:101DD00000F1E02080F80014704700F00F0000F1DF
:101DE000E02080F8141D704702E008C8121F08C1E7
:101DF000002AFAD170477047002001E001C1121F8C
:101E0000002AFBD1704700002DE9FF4F8DB09B46A3
:101E10000F460446002606E025280BD05A460F99A7
:101E20009047641C761C20780028F5D111B030460C
:101E3000BDE8F08F0025A8460122984900E005433F
:101E400014F8013F203B02FA03F00842F7D1207852
:101E50002E2817D114F8010F45F004052A280ED0BA
:101E60006FF02F022078A0F1300109290AD808EB81
:101E7000880102EB410100EB0108641CF2E757F80E
:101E8000048B641C20786C280DD004DC4C2812D004
:101E90006A2811D104E074280DD07A280CD10AE008
:101EA00045F4001507E0617845F48015814202D1C0
:101EB000641C05F58015641C2078692844D008DC72
:101EC0000028B3D0582867D063280FD0642808D1E1
:101ED0003AE0702865D0732812D075285AD0782837
:101EE0005AD05A460F999047761CD5E017F8040B44
:101EF0008DF8000000208DF80100E946012003E084
:101F000057F8049B4FF0FF3069074FF0000501D4EC
:101F10000AE06D1C45450DDA8542FADB19F805101B
:101F20000029F6D106E06D1C8542FCDB19F805108E
:101F30000029F8D12E4404E019F8010B5A460F99F4
:101F400090476D1EF8D2A7E00A200021CDE90801D4
:101F5000C5F3025002280CD001CFC117021E71F147
:101F600000020CDA0023D0EB030063EB01012D2209
:101F700008E0FF1D27F00707F7E80201EEE72A0552
:101F800004D52B228DF8282001223CE0EA073AD024
:101F90002022F7E70A2000E010200021CDE9080107
:101FA00007E01020002145F00405CDE908014FF0BD
:101FB0000808C5F30250022810D001CF00214FF0CD
:101FC000000A2A0720D52278702A0DD0DDE908C33F
:101FD0008CF0100C5CEA030C0CD015E0FF1D27F010
:101FE0000707F7E80201EAE740228DF828204FF0C2
:101FF000010A0CE050EA010306D030238DF82830A6
:102000008DF82920022292462278582A04D024A250
:102010000DF120090B9209E026A2F9E7DDE908237A
:10202000FEF7C6F80B9B9B5C09F8013D50EA0102E4
:10203000F4D1ADEB090020300890680701D44FF0CF
:1020400001080899884503DD0898A8EB000000E026
:1020500000208046002506E00AA85A46405D0F99F8
:1020600090476D1C761C5545F6DB04E030205A463F
:102070000F999047761CB8F10001A8F10108F5DC32
:1020800005E019F8010B5A460F999047761C0899FC
:10209000481E08900029F4DC641CC4E609280100ED
:1020A00030313233343536373839616263646566CE
:1020B0000000000030313233343536373839414290
:1020C000434445460000000004490A685206FCD516
:1020D000024AC1B2121D1160704700000044004066
:1020E000FEF776FAFFF785FCFFF78EFAFFF7A8FBFD
:1020F000FFF732FBFFF756FBFFF7BEFBFEF7DAF800
:1021000000243220FEF716F9FEF7F6F80120FEF75C
:1021100011F9FEF7F7F80A27144D0026641CA4B243
:102120001420FEF707F9B4FBF7F007FB104018B9CD
:1021300020210F48FEF730FA142C05D16E60AE60F6
:10214000FEF7DAF800246E8028780028E6D0FEF743
:10215000D9F82E70054A121D1088FEF79BF801462B
:10216000528804A0FFF720FED8E7000000000020FE
:102170000018014064617461313D2564206D562072
:1021800064617461323D30782578200D0A000000CA
:10219000010202030405060708090A0B0C0D0E0FC5
:1021A00010100000000000000000010203040607F8
:1021B000080900000000010203040000DC210008FF
:1021C0000000002020000000E81D0008FC2100089D
:1021D0002000002030050000F81D0008000000006D
:1021E00000000000000000000100000010000000DE
:0C21F000000000000024F40000000000CB
:0400000508000131BD
:00000001FF
