:020000040800F2
:100000006806002049010008431D0008291A00085D
:10001000411D00089103000845250008000000006C
:10002000000000000000000000000000351F000874
:100030009D05000800000000451D0008B51F0008D0
:100040006301000863010008630100086301000800
:1000500063010008630100086301000863010008F0
:1000600063010008630100086301000863010008E0
:1000700063010008630100086301000863010008D0
:1000800063010008630100086301000863010008C0
:1000900063010008630100086301000863010008B0
:1000A00063010008630100086301000863010008A0
:1000B0006301000863010008630100086301000890
:1000C0006301000863010008630100086301000880
:1000D0006301000863010008392500086301000876
:1000E0006301000863010008630100086301000860
:1000F0006301000863010008630100086301000850
:10010000630100086301000863010008630100083F
:10011000630100086301000863010008630100082F
:10012000630100086301000863010008630100081F
:10013000DFF810D000F0E2F80048004785270008FB
:10014000AFF3008068060020064880470648004755
:10015000FEE7FEE7FEE7FEE7FEE7FEE7FEE7FEE777
:10016000FEE7FEE7172000083101000840EA01031E
:100170009B0703D009E008C9121F08C0042AFAD25D
:1001800003E011F8013B00F8013B521EF9D2704721
:10019000D2B201E000F8012B491EFBD270470022C9
:1001A000F6E710B513460A4604461946FFF7F0FF76
:1001B000204610BD30B480EA010202F0004530F064
:1001C000004221F0004013D090B1C30DD40DC2F312
:1001D0001601C0F31600E41A41F4000140F40002D5
:1001E0007D34914201D3641C00E04900002C02DA06
:1001F00030BC002070474FF400000023914201D32F
:10020000891A034340084FEA4101F7D151B19142A5
:1002100002D14FF0004105E002D24FF0010101E0B0
:100220006FF0010103EBC450284430BC00F02FB83C
:1002300096230022114600F033B820F00040C10D93
:10024000C0F3160040F400007F2901DA0020704757
:10025000962903DCC1F19601C84070479639884061
:10026000704730B50B46014600202022012409E0EA
:1002700021FA02F59D4205D303FA02F5491B04FA5F
:1002800002F52844151EA2F10102F1DC30BD00295F
:10029000A8BF7047401C490008BF20F0010070470C
:1002A00010B4B0FA80FC00FA0CF050EA010404BF6C
:1002B00010BC704749B1CCF1200421FA04F411FAC2
:1002C0000CF118BF012121430843A3EB0C01CB1D06
:1002D0004FEA00614FEA102042BF002010BC704777
:1002E00000EBC35010440029A4BF10BC7047401C51
:1002F000490008BF20F0010010BC7047064C074DB4
:1003000006E0E06840F0010394E8070098471034E5
:10031000AC42F6D3FFF710FF4C2A00086C2A000805
:1003200038B51748816941F010018161816901F098
:1003300010010091816941F0080181618069114DCE
:1003400000F00800009001224121284600F01DFB2A
:100350000D4C402021462060112060600020A060EC
:100360000220E060284600F007FA012020602146C4
:10037000064800F001FABDE8384001F095BD0000E4
:10038000001002400010014038000020000C014025
:10039000FEE7000070B5002400F0C8F8124D04E03C
:1003A000641CE4B2012001F0CFFC8021284600F05B
:1003B000DFFA10B15A2CF3D30FE05A2C0DD20024DF
:1003C00004E0641CE4B2012001F0BEFC8021284658
:1003D00000F0CEFA18B15A2C04D3002070BD5A2C6C
:1003E000EFD3FAE7022070BD0010014070B5002481
:1003F000134D04E0641CE4B2012001F0A5FC80214F
:10040000284600F0B5FA08B1642CF3D3002404E0C8
:10041000641CE4B2012001F097FC8021284600F022
:10042000A7FA08B9642CF3D3282001F08DFC8021B1
:10043000284600F09DFA002800D0012070BD000081
:100440000010014070B5002004464006050EFFF77D
:10045000CDFF641C2843E4B2082CF6D370BD000025
:100460002DE9FC471D4691460E46804600F02AF8CD
:10047000FFF790FF022802D00020BDE8FC8700248F
:100480004FEA0D07FFF7DEFF3855641CE4B2052C78
:10049000F8D39DF800209DF801309DF802109DF8DA
:1004A0000300D4180F183C449DF80470BC4207D1D7
:1004B00032702B7088F8001089F800000220DCE709
:1004C0000120DAE710B500F03BF80B4C0022802148
:1004D000204600F05AFA46F2A81001F035FC00F070
:1004E0002FF801228021204600F04FFABDE810408D
:1004F0001E2001F029BC0000001001400A4B10B57D
:100500005A1E511E481EFFF7ABFF02280BD10648AA
:10051000C01E011D02780A7040784870BDE8104086
:10052000C82000F017B910BD0300002002490020C8
:100530004860024800F020B9280000200010014067
:10054000024901204860024800F016B92800002046
:100550000010014038B50E4C01228021204600F0E9
:1005600014FA0C49886940F00400886188690A49D6
:1005700000F00400009080200860002088600120C6
:1005800048600220C8602046BDE8384000F0F4B85A
:10059000001001400010024028000020704772B691
:1005A000FEE7000010B5012001F0EAFC202001F078
:1005B000E7FC782000F0CEF801F0DEFB042808D03C
:1005C000FFF736FE0349FFF7F5FDFFF736FE024958
:1005D000088010BD9A99993F0A00002010B590F844
:1005E00021100022022905D00421816380F82020F7
:1005F000012010BD01680B6823F00E030B60016839
:100600000B6823F001030B6090F84030C46B0121AC
:1006100001FA03F3636080F8211080F8202010466F
:1006200010BD00002DE9F05F90F821100024022990
:1006300003D004218163012485E001680A6822F067
:100640000E020A6001680A6822F001020A603F4E49
:100650003E4FB215DFF8F4C0DFF8F090DFF8ECA001
:10066000DFF8E8B0DFF8E4E00168783F1301150235
:10067000ACF1640CA9F15009AAF13C0AABF1280BCA
:10068000AEF1140E4FF48018B14227D9B9420ED002
:10069000614512D049451DD0514518D0594518D053
:1006A000714501D1424615E0294EB14201D10122E6
:1006B00010E0274E1436B14201D110220AE0244E38
:1006C0002836B14206D0224A3C32914201D11A4624
:1006D00000E02A461E49091F0A602BE0B94213D0E8
:1006E000614517D0494522D051451DD059451DD0EF
:1006F000714501D142461AE0B14202D14FF08072F9
:1007000015E0134EB14201D1012210E0104E143613
:10071000B14201D110220AE00D4E2836B14206D076
:100720000B4A3C32914201D11A4600E02A46074961
:1007300080394A60012180F82110002180F82010C2
:10074000416B01B188472046BDE8F09F8000024020
:100750000804024070B5044600F01CF90546601C10
:1007600002D004480078044400F014F9401BA04271
:10077000FAD370BD140000202DE9F84FDFF8C891BE
:100780000024A9F1040B23460F2709F1040AABF159
:10079000040ED1E00125A54006EA0502AA4276D161
:1007A000DFF8A8C14E68A6EB0C0866452BD00DDC1F
:1007B000032E34D005DC36B3012E19D0022E2FD1F2
:1007C0001BE0112E16D0122E2AD119E0B8F5881F81
:1007D00019D006DCB8F5803F15D0B8F5801F1FD1C1
:1007E00011E0B8F5001F0ED0B8F5041F18D10AE0CB
:1007F000CB6815E0CB681B1D12E0CB6808330FE017
:10080000CB680C330CE08B682BB1012B4FF0080345
:1008100003D0456104E0042302E0056100E0002309
:10082000FF2A01D8064601E000F104064FEA8405DC
:1008300001D9A5F12005D6F8008007FA05FC28EAC1
:100840000C0803FA05F548EA0508C6F800804D686B
:10085000ED0070D53E4DAE6946F00106AE61AD6962
:1008600024F0030605F0010500953A4D06EB050C52
:10087000DCF80850A607360F07FA06F825EA08053F
:10088000DFF8D480404503D14FF0000825E052E066
:10089000DFF8C880404502D14FF001081DE0DFF8C5
:1008A000C080404502D14FF0020816E0DFF8B48066
:1008B000404502D14FF003080FE0DFF8AC8040451F
:1008C00002D14FF0040808E0DFF8A080404502D1D3
:1008D0004FF0050801E04FF0060808FA06F848EA6C
:1008E0000508CCF808804D68D9F80060ED024D4647
:1008F00001D5164300E096432E604D68DAF800609B
:10090000AD02554601D5164300E096432E604D6872
:10091000DBF80060AD035D4601D5164300E0964369
:100920002E604D68DEF80060ED03754601D5164374
:1009300000E096432E60641C0A681646E2407FF48D
:1009400029AFBDE8F88F0000080401400000111035
:10095000001002400000014000080140000C01406E
:10096000001001400014014000180140001C01402B
:100970008068084000D001207047C26821EA020365
:100980000A4043EA0241016170470AB101617047C0
:100990000904FBE70148806870470000140000204C
:1009A0000248816802781144816070471400002079
:1009B000074810B5016841F010010160032000F004
:1009C00075F8002000F006F800F024F8002010BDB3
:1009D0000020024070B50D4D04464FF47A7128781E
:1009E000B1FBF0F00A490968B1FBF0F000F0DCFA65
:1009F00048B9102C07D200222146501E00F036F8CC
:100A000000206C6070BD012070BD0000140000204B
:100A1000200000200C4808B5816941F00101816186
:100A2000816901F001010091C16941F08051C1610A
:100A3000C06900F0805000900448416821F0E061F6
:100A400041F00071416008BD00100240000001400B
:100A5000002809DB00F01F020121914040098000BD
:100A600000F1E020C0F8001170470000F0B40E4B18
:100A70001B680C46C3F30223C3F10705042D00D9FC
:100A80000425191D072901D2002300E0DB1E0126E1
:100A900006FA05F1491E214099409E40761E1640F7
:100AA0003143F0BC01F060BD0CED00E0064900F000
:100AB000070208684FF6FF03184040EA0220034A85
:100AC00010430860704700000CED00E00000FA05DC
:100AD0002DE9F0470F46050061D0434E306800F025
:100AE0000700B84209D2306820F007003843306070
:100AF000306800F00700B84251D128683B4C8107AC
:100B000012D5400703D5606840F4E0606060287843
:100B1000000703D5606840F4605060606068A968B1
:100B200020F0F000084360602878C00728D068688B
:100B3000012810D02168022810D0890700292EDA58
:100B4000616821F0030101436160FFF723FF8046E4
:100B500041F288390DE021688903EFE78901EDE76B
:100B6000FFF718FFA0EB0801494502D90320BDE8B3
:100B7000F0876068696800F00C00B0EB810FEFD17E
:100B8000306800F00700B8420BD9306820F0070049
:100B900038433060306800F00700B84201D00120CF
:100BA000E5E72878400705D56068E96820F4E0604B
:100BB000084360602878000706D56068296920F43A
:100BC000605040EAC100606000F038F86168084A8F
:100BD000C1F30311515CC84006490860064800682B
:100BE000FFF7F8FE0020C2E700200240001002409C
:100BF000EA290008200000201800002004480549C8
:100C000000684968044AC1F30221515CC84070473A
:100C10002000002000100240FA290008044805497D
:100C200000684968044AC1F3C221515CC84070475A
:100C30002000002000100240FA2900080E4A5168E6
:100C40000E4801F00C03042B11D0082B0FD10C48D7
:100C5000C1F38343C903C05C0AD55168084AC1F394
:100C60004041921E515C054A5043B0FBF1F0704781
:100C700004494843704700000010024000127A0007
:100C8000DA29000800093D002DE9F84F040070D072
:100C90002078C04DC00749D06868C0F381000128A2
:100CA00007D06868C0F38100022809D16868C003D2
:100CB00006D52868800339D560680028E7D035E07C
:100CC0006068B0F5803F0BD010B1B0F5A02F11D007
:100CD000286820F480302860286820F4802002E012
:100CE000286840F480302860606890B1FFF752FEB9
:100CF00006460AE0286840F480202860F0E700BF3C
:100D0000FFF748FE801B642873D828688003F7D556
:100D10000CE0FFF73FFE064605E000BFFFF73AFE96
:100D2000801B6428F0D828688003F7D420789A4E76
:100D300080074FF001094FF0000839D5686810F0BE
:100D40000C0F07D06868C0F38100022809D16868D9
:100D5000C00306D42868800714D52069012808D16B
:100D600010E02069B0B1C6F80090FFF713FE074607
:100D700005E00AE1FFF70EFEC01B0228C4D8286870
:100D80008007F7D52868616920F0F80040EAC100C3
:100D900028600DE0C6F80080FFF7FCFD074604E080
:100DA000FFF7F8FDC01B022823D828688007F7D476
:100DB000207800072CD57948A169D9B1C0F80090F6
:100DC000FFF7E8FD074604E0FFF7E4FDC01B02283B
:100DD0000FD8686A8007F7D571484FF4FA51006858
:100DE000B0FBF1F0009000BF0098411E0091FAD2D4
:100DF0000EE080E0C0F80080FFF7CCFD074604E07D
:100E0000FFF7C8FDC01B022875D8686A8007F7D4B1
:100E10002078400760D5E8690027C00008D4E86959
:100E200040F08050E861E869012700F080500090B0
:100E30005C480168C90513D40168834641F4807198
:100E40000160FFF7A7FD824606E000BFFFF7A2FDA5
:100E5000A0EB0A0064284ED8DBF80000C005F5D5E9
:100E6000E06801280AD008B1052813D0286A20F0CC
:100E700001002862286A20F0040002E0286A40F09D
:100E800001002862E06841F2883B98B1FFF782FDDB
:100E900082460BE0286A40F004002862EEE700BFBB
:100EA000FFF778FDA0EB0A0159455AD8286A800758
:100EB000F6D50CE0FFF76EFD824605E0FFF76AFD10
:100EC000A0EB0A0159454CD8286A8007F6D41FB117
:100ED000E86920F08050E861E06988B36968C1F38F
:100EE0008101022944D00228C6F8608004D0FFF7AF
:100EF00051FD044638E034E0FFF74CFD074604E0BE
:100F0000FFF748FDC01B02282BD828688001F7D4C2
:100F1000206AB0F5803F05D16868A16820F40030F0
:100F200008436860D4E908010843696821F4741132
:100F300008436860C6F86090FFF72CFD044606E0A1
:100F400025E000BFFFF726FD001B022809D828680E
:100F50008001F7D51BE000BFFFF71CFD001B022836
:100F600002D90320BDE8F88F28688001F4D40EE090
:100F70000128F7D06868226A00F48031914204D1D8
:100F8000616A00F47010884201D00120EAE7002075
:100F9000E8E70000001002400000424280044242A4
:100FA000200000200070004010B5401EB0F1807F8E
:100FB00001D3012010BD4FF0E02460610F216017C4
:100FC00001F0D2FA0020A06107202061002010BDAE
:100FD00070B590F83C20012A2CD0012480F83C40C8
:100FE000022280F83D2003685A689D6822F070064E
:100FF0000A6832435A60104B02689A420ED00F4B77
:101000009A420BD0B2F1804F08D00D4B9A4205D0D6
:101010000C4B9A4202D00C4B9A4204D1496825F0FD
:1010200080031943916080F83D40002180F83C1016
:10103000084670BD022070BD002C01400034014004
:101040000004004000080040000C004010B50400FF
:1010500003D094F83D0010B107E0012010BD00203E
:1010600084F83C00204600F01FF8022084F83D0080
:10107000211D206800F0D0FF012084F8460084F88C
:101080003E0084F83F0084F8400084F8410084F872
:10109000420084F8430084F8440084F8450084F852
:1010A0003D00002010BD000008B501680B48B1F1FB
:1010B000804F0BD00A4A914207D1C16941F0020129
:1010C000C161C06900F00200009008BDC16941F033
:1010D0000101C161C06900F00100F5E700100240A4
:1010E0000004004090F83D10012901D00120704714
:1010F000022180F83D1000680E4988420ED00E494A
:1011000088420BD0B0F1804F08D00C49884205D0FE
:101110000B49884202D00B49884204D1816801F012
:101120000701062903D0016841F001010160002098
:1011300070470000002C01400034014000040040D2
:1011400000080040000C004001680A6A41F21113D7
:101150001A4207D10A6A9B101A4203D10A6822F088
:1011600001020A60012180F83D100020704770B52F
:10117000044690F83C000025012817D0012684F889
:101180003C60022084F83D002068826822F07702EB
:1011900022F47F4282600868502838D00DDC202875
:1011A0004FD005DC90B3102811D14AE0022070BD69
:1011B000302846D040280AD13BE060282FD0702844
:1011C0000DD0B0F5805F03D0B0F5005F12D00125DF
:1011D00084F83D60002084F83C00284670BDCB6850
:1011E000D1E90121206800F06AFF2068816841F0A0
:1011F000770109E0CB68D1E90121206800F05FFFA9
:101200002068816841F480418160E1E719E0CA68A3
:101210004968206801F028F85021206806E0CA6873
:101220004968206801F031F86021206800F051FF22
:10123000CEE7CA684968206801F016F840212068A6
:10124000F4E7226801461046F0E7000000B585B0DB
:101250000021009101910291039100681049884298
:101260001BD11048816941F0100181618069694694
:1012700000F0100004904FF40070009002200190E4
:1012800003900948FFF778FA0848416821F4406163
:1012900041F0E06141F44061416005B000BD0000F3
:1012A0000004004000100240001001400000014016
:1012B00070B5044690F83C0000260D4601280FD07A
:1012C000012084F83C006AB1042A1DD0082A2FD0DE
:1012D0000C2A3FD00126002084F83C00304670BD27
:1012E000022070BD206800F0FDFE2068816941F099
:1012F000080181612068816921F004018161206811
:1013000081692A69114311E0206800F01BFF206801
:10131000816941F4006181612068816921F4806103
:101320008161206881692A6941EA02218161D2E7ED
:10133000206800F03DFF2068C16941F00801C161EB
:101340002068C16921F00401C1612068C1692A696E
:10135000114311E0206800F05FFF2068C16941F48B
:101360000061C1612068C16921F48061C1612068A8
:10137000C1692A6941EA0221C161ACE710B50400E4
:1013800003D094F83D0010B107E0012010BD00200B
:1013900084F83C00204600F01EF8022084F83D004E
:1013A000211D206800F038FE012084F8460084F8F2
:1013B0003E0084F83F0084F8400084F8410084F83F
:1013C000420084F8430084F8440084F8450084F81F
:1013D0003D00002010BD704710B50446022249B1FF
:1013E00004290ED0082913D094F84100012816D002
:1013F000012010BD94F83E000128F9D184F83E2068
:101400000FE094F83F000128F2D184F83F2008E073
:1014100094F840000128EBD184F8402001E084F8E2
:1014200041200122206800F03DFE13492068134A44
:10143000884201D0904203D1436C43F4004343649B
:10144000206888420DD090420BD0B0F1804F08D078
:101450000B49884205D00B49884202D00A4988428C
:1014600004D1816801F00701062903D0016841F029
:1014700001010160002010BD002C0140003401403A
:101480000004004000080040000C004030B5044655
:101490000D460068002200F005FE194B41F21111C3
:1014A00020688A10984202D0164B984209D1036AEC
:1014B0000B4206D1036A134203D1436C23F4004369
:1014C00043642068036A0B4206D1016A114203D1CA
:1014D000016821F00101016001203DB1042D08D017
:1014E000082D09D084F84100002030BD84F83E006A
:1014F000FAE784F83F00F7E784F84000F4E70000DB
:10150000002C01400034014070477047F8B5016875
:1015100004460868CA684B6910F00F0F4FF00005C9
:1015200059D003F0010602F49077374365D0C10724
:1015300005D0D10503D5616C41F00101616441071B
:1015400005D5D90703D0616C41F0020161648107C0
:1015500005D5D90703D0616C41F00401616401072E
:1015600007D502F02001314303D0616C41F008013E
:101570006164616C00293AD0800604D5900602D5DA
:10158000204600F0C3FE20684069616CC0F3801003
:10159000090700D460B3204600F091FE206840693E
:1015A000400621D52068143050E8001F21F040018A
:1015B00040E80012002AF5D1E06BA8B16D49416303
:1015C000E06BFFF72FF8002811D0E06B416B01B002
:1015D000BDE8F040084783060FD593060DD5204699
:1015E000BDE8F84000F092BE2046FFF78EFFF8BD40
:1015F0002046FFF78AFF6564F8BD266B2023012E85
:101600007CD1C6067AD5D60678D508684868009099
:1016100048694FF00206400640D5E16B0868406813
:101620000004000CE8D0A28D8242E5D9E0858869EB
:1016300020282DD020680C3050E8001F21F4807144
:1016400040E80012002AF5D12068143050E8001F4D
:1016500021F0010140E80012002AF5D12068143081
:1016600050E8001F21F0400140E80012002AF5D1A7
:1016700084F84230256320680C3050E8001F21F0C8
:10168000100140E80012002AF5D1E06BFEF7A6FF3A
:101690006663A08DE18D401A81B22AE0A08DE18DB4
:1016A000401A81B2E08D0028A6D00029A4D022687B
:1016B0000C3252E8000F20F4907042E80007002F2F
:1016C000F5D12068143050E8002F22F0010240E8E4
:1016D0000027002FF5D184F84230256320680C30B4
:1016E00050E8002F22F0100240E80023002BF5D133
:1016F00066632046FFF708FFF8BDFFE705062BD518
:10170000150629D594F841002128F5D1A068B0F537
:10171000805F01D12069B0B1206A411C216221683B
:1017200000784860E08C401E0004000CE084E3D1A7
:101730002068C16821F08001C1602068C16841F063
:101740004001C160D8E7206A0088C0F30800486003
:10175000206A801C2062E5E74006CDD55006CBD537
:10176000CA68204622F04002CA6084F8413000F086
:101770005AF9C1E7AF22000870B5040004D094F80C
:101780004100002510B106E0012070BD84F84050F2
:10179000204600F023F8242084F841002068C16826
:1017A00021F40051C160204600F012FE206801695A
:1017B00021F4904101612068416921F02A014161D1
:1017C0002068C16841F40051C1606564202084F83C
:1017D000410084F842006563002070BD70B586B09A
:1017E000002400940194029403942B4E03682B4927
:1017F000022003222A4DB34221D18B6943F4804356
:101800008B618B6903F4804304938B6943F0040379
:101810008B618969039201F0040104910102CDE911
:10182000001069462846FEF7A7FF2815CDE90004F9
:10183000694628460294FEF79FFF06B070BD194E18
:10184000B342FAD1CB6943F40033CB61CB6903F4E3
:10185000003304938B6943F004038B61896903921D
:1018600001F0040104910421CDE9001069462846E5
:10187000FEF782FF0820CDE900046946284602945D
:10188000FEF77AFF002203212620FFF7EFF826203B
:10189000FFF7DEF8D1E700000038014000100240F9
:1018A000000801400044004090F84230202B01D055
:1018B0000220704721B11AB10023036300F0E4BD98
:1018C000012070472DE9F04100682B49884251D131
:1018D0002A4C2B4D0122E078A1782954401CE0705D
:1018E000A11C2848FFF7E0FFE078284410F8011C0D
:1018F0000A293FD110F8021C0D293BD110F8040C25
:10190000214F0026312814D101202071617901294D
:1019100028D060710C213846FFF75EFD396807203A
:10192000086441F64C50FEF715FF0C213846FFF7CE
:10193000ADFDE078284410F8040C302812D126714F
:10194000607978B166710C210F48FFF745FD396861
:101950001920086441F62C20FEF7FCFE0C210A48F1
:10196000FFF794FDE670BDE8F0414FF48071044844
:10197000FEF715BCBDE8F081004400400C000020DB
:101980004800002020020020900100202DE9F843AB
:10199000044690F841001F4616460D46202802D006
:1019A0000220BDE8F8837DB176B10020606421207B
:1019B00084F84100FEF7EEFFA6848046E684A06826
:1019C000B0F5805F02D003E00120EAE7206910B1A2
:1019D0002E4600250EE000260CE08021204600F077
:1019E0006EFDA0B9AEB116F8010B21684860E08C1D
:1019F000401EE084E08C43464FF000020097002830
:101A0000EBD14FF04001204600F059FD30B10320EA
:101A1000C7E735F8020BC0F30800E6E7202084F89A
:101A200041000020BDE77047FEE7000030B5F1B08F
:101A3000402230496846FEF799FB2E49402240314A
:101A400010A8FEF793FB2B494022803120A8FEF717
:101A50008DFB28494022C03130A8FEF787FB402289
:101A6000254940A8FEF782FB23494022403150A877
:101A7000FEF77CFB20494022803160A8FEF776FB10
:101A800069461EA000F060FD4FF47A70FEF762FE1A
:101A900010A91AA000F058FD40F6B8342046FEF711
:101AA00059FE20A915A000F04FFD4FF4FA65284615
:101AB000FEF750FE30A911A000F046FD2046FEF7CB
:101AC00049FE40A90DA000F03FFD2846FEF742FE6A
:101AD00050A90AA000F038FD41F28830FEF73AFE26
:101AE00060A906A000F030FD2046FEF733FE71B07D
:101AF00030BD0000182800081829000825730000D0
:101B00002DE9F04786B000242D48009401940294FA
:101B10000394816941F020018161816901F0200114
:101B20000491816941F004018161816901F004013E
:101B30000491816941F008018161816901F0080126
:101B40000491816941F0100181618069DFF874803E
:101B500000F010004FF40045049000222946404652
:101B6000FEF713FF0122DFF860901702394648465E
:101B7000FEF70BFFDFF854A0002204215046FEF7C9
:101B800004FF0095022601250396CDE9015469461C
:101B90004046FEF7F1FD00970396CDE901546946F2
:101BA0004846FEF7E9FD0420CDE90005CDE90246EF
:101BB00069465046FEF7E0FD06B0BDE8F08700003C
:101BC00000100240000C01400008014000140140D8
:101BD00010B586B000241648009401940294039432
:101BE00004944FF08041059401604721C0E901143D
:101BF0004FF6FF71C0E903148461FFF727FA08B1BB
:101C0000FEF7CDFC4FF48050009069460848FFF77E
:101C1000AEFA08B1FEF7C3FC049404A90448059485
:101C2000FFF7D6F9002801D0FEF7B9FC06B010BDC9
:101C30004801002010B58EB0002407940894099440
:101C40000A940B941C2168460C94FEF7A8FA1F48CE
:101C50001D4901604FF4E151C0E90114C821C0E9F8
:101C6000031480218161FFF7F1F908B1FEF797FCB9
:101C70004FF48050079007A91448FFF778FA08B18D
:101C8000FEF78DFC1148FFF779FB08B1FEF787FCE2
:101C90000B940BA90D480C94FFF79AF908B1FEF7C5
:101CA0007EFC6020CDE9000402940C2269460748BE
:101CB0000494FFF7FDFA08B1FEF771FC0348FFF743
:101CC000C5FA0EB010BD00000004004090010020D5
:101CD0000C4810B50A4901604FF4E1314160002120
:101CE00081600C22C160C0E904128161C161FFF70B
:101CF00043FD002803D0BDE81040FEF750BC10BDE6
:101D000000380140D80100200C4810B50A49016094
:101D10004FF4E1314160002181600C22C160C0E9D3
:101D200004128161C161FFF727FD002803D0BDE8DF
:101D30001040FEF734BC10BD0044004020020020DB
:101D4000FEE7FEE77047000070B54FF6FA75094EE2
:101D5000281A84B2306844623046FFF7C3F930680D
:101D600001E0416A8CB2AC42FBD3BDE8704001484F
:101D7000FFF7EAB94801002010B500F071F84720DC
:101D800000F03CF800F0AAF801280CD000F00EF8A2
:101D9000044600F0D1F800F009F840EA042400F00D
:101DA00083F8204610BD042010BD00002DE9F0414D
:101DB0000024104F104E25466006040E01224021DB
:101DC0003046FEF7E2FD00F0D7FC01213846FEF771
:101DD000CFFD08B1641CE4B2002240213046FEF77A
:101DE000D4FD00F0C9FC6D1CEDB2082DE4D32046F3
:101DF000BDE8F081000C0140001001402DE9F041E8
:101E0000154E164F05460024280601D5012200E094
:101E1000002201213846FEF7B8FD00F0ADFC01229A
:101E200040213046FEF7B1FD00F0A6FC0022402123
:101E30003046FEF7AAFD072C04D101221146384690
:101E4000FEF7A3FD6806050E00F096FC641CE4B2E4
:101E5000082CD9D3BDE8F08100100140000C0140EE
:101E600070B50F4C012211462046FEF78EFD0D4D38
:101E7000012240212846FEF788FD00F07DFC00226B
:101E800001212046FEF781FD00F076FC0022402172
:101E90002846FEF77AFDBDE8704000F06DBC0000FA
:101EA000000C01400010014010B50A4C0022012135
:101EB0002046FEF76AFD012240210748FEF765FD36
:101EC00000F05AFC20460122BDE810401146FEF702
:101ED0005CBD0000000C01400010014070B5134DC6
:101EE000012211462846FEF750FD00F045FC104C3B
:101EF000012240212046FEF748FD00F03DFC012173
:101F00002846FEF735FD00284FF000024FF0400153
:101F1000204605D0FEF739FD00F02EFC012070BDF3
:101F2000FEF733FD00F028FC002070BD000C0140DE
:101F3000001001407047000070B50F4C00220121D5
:101F40002046FEF722FD00F017FC0C4D0122402137
:101F50002846FEF71AFD00F00FFC0022402128461B
:101F6000FEF713FD00F008FC2046BDE8704001229A
:101F70001146FEF70ABD0000000C014000100140B0
:101F800010B50446FFF76CFF4620FFF737FFFFF759
:101F9000A5FF01280AD02046FFF730FFFFF79EFF7C
:101FA000012805D0FFF780FF002010BD022010BDE2
:101FB000032010BDFEF7F4BC30B58FB02821684671
:101FC000FEF7EDF814210AA8FEF7E9F8012108044C
:101FD000CDE900100024029402250491CDE90750B8
:101FE0004FF4E01009906846FEF74EFE08B172B655
:101FF000FEE70F20CDE90A054FF48060CDE90C40E3
:1020000002210AA80E94FEF763FD002801D072B6E3
:10201000FEE70FB030BD7047F0B502681C4B1D4D98
:102020001D4E1E4F1E4C4FF0804C984209D0A042CE
:1020300007D0604505D0A84203D0B04201D0B842D5
:1020400004D122F0700E4A6842EA0E02984209D08A
:10205000A04207D0604505D0A84203D0B04201D0CD
:10206000B84203D122F44075CA682A434D6922F070
:1020700080022A4302608A68C2620A6882629842C9
:1020800001D0A04201D10969016301214161F0BD84
:10209000002C01400004004000080040000C0040FB
:1020A0000034014010B501F01F030121046A99407A
:1020B0008C430462016A9A401143016210BD10B55D
:1020C000846842EA032224F47F440A432243826064
:1020D00010BD826822F070020A4342F0070181605D
:1020E00070470000F0B5036A026A22F00102026242
:1020F00042688469124E24F073050C682C4323F067
:1021000002058B682B430D4DA84201D0B04205D18A
:1021100023F00807CB683B4323F00403A84201D017
:10212000B04205D14D6922F4407215438A692A43B1
:1021300042608461496841630362F0BD002C014044
:1021400000340140F0B5026A036A23F01003036211
:10215000436884690D6824F4E64444EA05248D68E4
:1021600022F0200242EA05120F4D104EA84201D083
:10217000B04206D1CF6822F0800242EA071222F074
:102180004002A84201D0B04207D14D6923F4406318
:1021900043EA85038D6943EA8503436084614968A6
:1021A00081630262F0BD0000002C01400034014058
:1021B000F0B5026A036A23F4807303624368C4695A
:1021C00022F4007224F073050C68124E2C438D68C3
:1021D00042EA05220E4DA84201D0B04206D1CF6896
:1021E00022F4006242EA072222F48062A84201D06F
:1021F000B04207D14D6923F4405343EA05138D697A
:1022000043EA05134360C4614968C1630262F0BDDB
:10221000002C01400034014030B5046A026A22F407
:10222000805202624268C3690D6823F4E64343EAC0
:1022300005238D6824F4005444EA0534084DA8426F
:1022400002D0084DA84204D14D6922F4804242EAEE
:1022500085124260C36149680164046230BD0000B8
:10226000002C01400034014010B5036A046A24F0D8
:1022700001040462846924F0F00444EA021423F0A7
:102280000A020A438461026210BD10B5036A046A3F
:1022900024F010040462846923F0A00324F4704441
:1022A00044EA023243EA01118261016210BD10B5B5
:1022B000406A0021C185C184FFF727F910BD01687C
:1022C0000C3151E8002F22F4907241E80023002BDA
:1022D000F5D10168143151E8002F22F0010241E8E4
:1022E0000023002BF5D1016B012909D101680C31C4
:1022F00051E8002F22F0100241E80023002BF5D115
:10230000202180F8421000210163704708B590F841
:102310004210222901D0022008BD82684FF4805368
:102320009A4201D1016921B1816A9A421BD04AB116
:102330000AE00268816A5268C2F308020A80816A70
:10234000891C08E0026972B10268526802F07F02DB
:102350000A70816A491C8162C18D491E0904090CF9
:10236000C18503D01BE002685268F1E70168CA68C2
:1023700022F02002CA600168CA6822F48072CA6032
:1023800001684A6922F001024A61202180F8421066
:1023900000214163026B012A03D0FFF793FA00206A
:1023A00008BD016301680C3151E8002F22F01002D2
:1023B00041E80023002BF5D101680A68D20602D556
:1023C0000A6849680091818DFFF79EF8E7E70000F1
:1023D00070B5044600680169E26821F44051114378
:1023E00001612169A0680843616908432168CA68DE
:1023F00041F20C639A430243CA6020684169A269B2
:1024000021F44071114341611E492068884202D184
:10241000FEF704FC01E0FEF7F1FB00EBC00101EB6D
:102420000012606864218000B2FBF0F3B3FBF1F3AB
:102430006FF018067343B2FBF0F5B2FBF0F605EB54
:102440008305322303EB0515B5FBF1F5B6FBF1F679
:1024500005F0F00505EB0615B2FBF0F6B2FBF0F067
:10246000B0FBF1F06FF01802504306EB800003EB75
:102470000010B0FBF1F0216800F00F0028448860E4
:1024800070BD00000038014081628285C285002154
:102490004164222180F84210016921B10168CA68B3
:1024A00042F48072CA6001684A6942F001024A61DE
:1024B0000068C16841F02001C160002070472DE92B
:1024C000F041984617460E460446069D27E0681CD4
:1024D00025D02DB1FEF75EFAA0EB0800A8421ED968
:1024E00020680C3050E8001F21F4D07140E8001241
:1024F000002AF5D12068143050E8001F21F00101B6
:1025000040E80012002AF5D1202084F8410084F828
:102510004200002084F840000320BDE8F0812068DC
:10252000006836EA000004D00020B842CFD0002076
:10253000F3E70120F9E700000148FEF7E7BF0000DC
:1025400020020020FEE700000FB4054B10B503A9E0
:10255000044A029800F028F810BC5DF814FB000053
:1025600061270008240000200907090E002804DB69
:1025700000F1E02080F80014704700F00F0000F137
:10258000E02080F8141D704702E008C8121F08C13F
:10259000002AFAD170477047002001E001C1121FE4
:1025A000002AFBD1704700002DE9FF4F8BB09A46FF
:1025B0000F460546002606E025280BD052460D9909
:1025C00090476D1C761C28780028F5D10FB0304656
:1025D000BDE8F08F0024A0460122604900E00443DA
:1025E00015F8013F203B02FA03F00842F7D12878A2
:1025F0002E2817D115F8010F44F004042A280ED014
:102600006FF02F022878A0F1300109290AD808EBD1
:10261000880102EB410100EB01086D1CF2E757F85D
:10262000048B6D1C287869283ED006DC0028CDD0AC
:1026300063280BD0642804D136E0732810D07528A5
:102640004BD052460D999047761C85E017F8040B45
:102650008DF8000000208DF80100E946012003E01C
:1026600057F8049B4FF0FF3061074FF0000401D48E
:102670000AE0641C44450DDA8442FADB19F80410C0
:102680000029F6D106E0641C8442FCDB19F8041032
:102690000029F8D1264404E019F8010B52460D999F
:1026A0009047641EF8D257E001CF4FF00A0B002884
:1026B00002DA40422D2102E0210504D52B218DF8BC
:1026C0002410012103E0E10705D02021F7E70DF1F7
:1026D000200908910CE00021F9E701CF4FF00A0B27
:1026E000F9E75946FDF7BDFD01F1300209F8012D6A
:1026F0000028F6D1ADEB090000F1200B600701D4F2
:102700004FF00108D84502DDA8EB0B0000E00020E7
:102710008046002406E009A85246005D0D999047C6
:10272000641C761C08988442F5DB04E03020524695
:102730000D999047761CB8F10001A8F10108F5DC6D
:1027400005E019F8010B52460D999047761CBBF134
:102750000001ABF1010BF4DC6D1C34E7092801002A
:1027600013B54FF47A73012269460248FFF70EF958
:1027700000981CBD200200200020401CC0B20A2886
:10278000FBD37047FEF714F9FFF716FCFFF7B8F913
:10279000FFF750FAFFF71CFAFFF79AFAFFF7B4FABF
:1027A0000C211648FEF718FEFDF7D4FEFDF7B8FD24
:1027B000012213491348FFF777F8FFF737F9104D57
:1027C000114C124EDFF84880AD1E4FF480774FF465
:1027D0007A6900BFFDF792FEFDF7E4FE21782970CB
:1027E00062786A7033880B48FFF7AEFE3946404680
:1027F000FEF7C3F84846FDF7ADFFEBE79001002078
:102800000E00002020020020040000200A0000200A
:1028100000080140042A000841540D0A000000008D
:1028200000000000000000000000000000000000A8
:102830000000000000000000000000000000000098
:102840000000000000000000000000000000000088
:10285000000000000000000041542B5253540D0AA8
:102860000000000000000000000000000000000068
:102870000000000000000000000000000000000058
:102880000000000000000000000000000000000048
:10289000000000000000000041542B43574D4F44FE
:1028A000453D310D0A00000000000000000000005E
:1028B0000000000000000000000000000000000018
:1028C0000000000000000000000000000000000008
:1028D000000000000000000041542B43574A4150C3
:1028E0003D2233793733367936222C227A696A6968
:1028F000706F6A696538220D0A0000000000000050
:1029000000000000000000000000000000000000C7
:10291000000000000000000041542B4D515454555C
:102920005345524346473D302C312C2245535030BD
:102930003173222C22222C22222C302C302C2222C9
:102940000D0A000000000000000000000000000070
:10295000000000000000000041542B4D515454432E
:102960004F4E4E3D302C2262726F6B65722E656D3C
:1029700071782E696F222C313838332C310D0A00D2
:102980000000000000000000000000000000000047
:10299000000000000000000041542B4D51545453DE
:1029A00055423D302C22746F6375727461696E22DA
:1029B0002C310D0A000000000000000000000000A3
:1029C0000000000000000000000000000000000007
:1029D00000000000000000000102020304050607D9
:1029E00008090A0B0C0D0E0F10100000000000006B
:1029F00000000102030406070809000000000102AC
:102A00000304000041542B4D5154545055423D3065
:102A10002C22746F70686F6E65222C227B5C2254AE
:102A2000656D705C223A25645C2C5C2248756D5C97
:102A3000223A25645C2C5C224C696768745C223AFB
:102A400025647D222C302C300D0A00006C2A0008F1
:102A5000000000202800000088250008942A0008B3
:102A60002800002040060000982500080000000013
:102A70000000000000000000000000000000000056
:102A80000100000010000000000000000024F4001D
:042A90000000000042
:0400000508000131BD
:00000001FF
