:020000040800F2
:10000000C004002049010008C71100088B10000837
:10001000C5110008E10100088D140008000000006F
:10002000000000000000000000000000FD110008BA
:100030006104000800000000C9110008FF11000859
:100040006301000863010008630100086301000800
:1000500063010008630100086301000863010008F0
:1000600063010008630100086301000863010008E0
:1000700063010008630100086301000863010008D0
:1000800063010008630100086301000863010008C0
:1000900063010008630100086301000863010008B0
:1000A00063010008630100086301000863010008A0
:1000B0006301000863010008630100086301000890
:1000C0006301000863010008630100086301000880
:1000D0006301000863010008630100086301000870
:1000E0006301000863010008630100086301000860
:1000F0006301000863010008630100086301000850
:10010000630100086301000863010008630100083F
:10011000630100086301000863010008630100082F
:10012000630100086301000863010008630100081F
:10013000DFF810D000F042F8004800475D160008D4
:10014000AFF30080C00400200648804706480047FF
:10015000FEE7FEE7FEE7FEE7FEE7FEE7FEE7FEE777
:10016000FEE7FEE76112000831010008D2B201E0AB
:1001700000F8012B491EFBD270470022F6E710B5AC
:1001800013460A4604461946FFF7F0FF204610BD05
:1001900030B50B46014600202022012409E021FA57
:1001A00002F59D4205D303FA02F5491B04FA02F554
:1001B0002844151EA2F10102F1DC30BD064C074DAA
:1001C00006E0E06840F0010394E807009847103427
:1001D000AC42F6D3FFF7B0FFA4160008C41600081F
:1001E000FEE7000070B5002400F002F9124D04E0B3
:1001F000641CE4B2012000F0E9FF8021284600F0F1
:1002000041FA10B15A2CF3D30FE05A2C0DD200242E
:1002100004E0641CE4B2012000F0D8FF80212846ED
:1002200000F030FA18B15A2C04D3002070BD5A2CBB
:10023000EFD3FAE7022070BD0008014070B500243A
:10024000134D04E0641CE4B2012000F0BFFF8021E4
:10025000284600F017FA08B1642CF3D3002404E018
:10026000641CE4B2012000F0B1FF8021284600F0B8
:1002700009FA08B9642CF3D3282000F0A7FF8021E5
:10028000284600F0FFF9002800D0012070BD0000D2
:100290000008014070B5002004464006050EFFF737
:1002A000CDFF641C2843E4B2082CF6D370BD0000D7
:1002B0002DE9FC471D4691460E46804600F02AF87F
:1002C000FFF790FF022802D00020BDE8FC87002441
:1002D0004FEA0D07FFF7DEFF3855641CE4B2052C2A
:1002E000F8D39DF800209DF801309DF802109DF88C
:1002F0000300D4180F183C449DF80470BC4207D189
:1003000032702B7088F8001089F800000220DCE7BA
:100310000120DAE710B500F075F80B4C00228021BF
:10032000204600F0B4F946F2A81000F04FFF00F0AC
:1003300069F801228021204600F0A9F9BDE81040AB
:100340001E2000F043BF00000008014010B5134B11
:100350005A1E511E481EFFF7ABFF022803D068B19A
:10036000012816D00FE00D4AD21E101D1178017021
:10037000527842700AA001F08BF801E010A009E069
:10038000C82000F071F8BDE810404FF47A7000F01A
:100390006BB812A001F07CF8F2E700000300002027
:1003A00074656D70657261747572653D25642C6845
:1003B000756D69646974793D25640D0A000000005B
:1003C0007265736574206F7220726573706F6E73DF
:1003D00065206572726F72310A0000006461746199
:1003E00020636865636B206572726F72320A000069
:1003F000024900204860024800F048B82000002070
:1004000000080140024901204860024800F03EB85F
:10041000200000200008014038B50E4C0122802148
:10042000204600F034F90C49886940F004008861E6
:1004300088690A4900F004000090802008600020CC
:100440008860012048600220C8602046BDE838402E
:1004500000F01CB8000801400010024020000020FD
:10046000704772B6FEE7000070B5044600F014F95C
:100470000546601C02D004480078044400F00CF9E2
:10048000401BA042FAD370BD0C0000202DE9F84FAC
:10049000DFF8C8910024A9F1040B23460F2709F1C6
:1004A000040AABF1040ED1E00125A54006EA0502DD
:1004B000AA4276D1DFF8A8C14E68A6EB0C086645C3
:1004C0002BD00DDC032E34D005DC36B3012E19D031
:1004D000022E2FD11BE0112E16D0122E2AD119E098
:1004E000B8F5881F19D006DCB8F5803F15D0B8F5EF
:1004F000801F1FD111E0B8F5001F0ED0B8F5041F02
:1005000018D10AE0CB6815E0CB681B1D12E0CB6860
:1005100008330FE0CB680C330CE08B682BB1012B58
:100520004FF0080303D0456104E0042302E00561B5
:1005300000E00023FF2A01D8064601E000F104068E
:100540004FEA840501D9A5F12005D6F8008007FA05
:1005500005FC28EA0C0803FA05F548EA0508C6F880
:1005600000804D68ED0070D53E4DAE6946F0010645
:10057000AE61AD6924F0030605F0010500953A4D22
:1005800006EB050CDCF80850A607360F07FA06F84C
:1005900025EA0805DFF8D480404503D14FF0000874
:1005A00025E052E0DFF8C880404502D14FF0010855
:1005B0001DE0DFF8C080404502D14FF0020816E090
:1005C000DFF8B480404502D14FF003080FE0DFF8B8
:1005D000AC80404502D14FF0040808E0DFF8A0806D
:1005E000404502D14FF0050801E04FF0060808FA37
:1005F00006F848EA0508CCF808804D68D9F800608C
:10060000ED024D4601D5164300E096432E604D683D
:10061000DAF80060AD02554601D5164300E0964376
:100620002E604D68DBF80060AD035D4601D51643D2
:1006300000E096432E604D68DEF80060ED037546DD
:1006400001D5164300E096432E60641C0A681646E6
:10065000E2407FF429AFBDE8F88F000008040140B4
:10066000000011100010024000000140000801408D
:10067000000C01400010014000140140001801402E
:10068000001C01408068084000D0012070470AB17A
:10069000016170470904FBE701488068704700006A
:1006A0000C00002002488168027811448160704784
:1006B0000C000020074810B5016841F010010160EE
:1006C000032000F067F80F2000F006F800F024F88F
:1006D000002010BD0020024070B50D4D04464FF4BF
:1006E0007A712878B1FBF0F00A490968B1FBF0F0A3
:1006F00000F0CEFA48B9102C07D200222146501E35
:1007000000F028F800206C6070BD012070BD000072
:100710000C000020180000200C4808B5816941F049
:1007200001018161816901F001010091C16941F01C
:100730008051C161C06900F0805000900448416858
:1007400021F0E06141F00071416008BD00100240FD
:1007500000000140F0B40E4B1B680C46C3F30223AB
:10076000C3F10705042D00D90425191D072901D25D
:10077000002300E0DB1E012606FA05F1491E214098
:1007800099409E40761E16403143F0BC00F090BE6A
:100790000CED00E0064900F0070208684FF6FF0381
:1007A000184040EA0220034A1043086070470000E6
:1007B0000CED00E00000FA052DE9F0470F460500BA
:1007C00061D0434E306800F00700B84209D230686B
:1007D00020F0070038433060306800F00700B8426E
:1007E00051D128683B4C810712D5400703D560687A
:1007F00040F4E06060602878000703D5606840F44A
:10080000605060606068A96820F0F0000843606094
:100810002878C00728D06868012810D021680228ED
:1008200010D0890700292EDA616821F00301014305
:100830006160FFF731FF804641F288390DE02168A1
:100840008903EFE78901EDE7FFF726FFA0EB080139
:10085000494502D90320BDE8F0876068696800F067
:100860000C00B0EB810FEFD1306800F00700B84208
:100870000BD9306820F0070038433060306800F052
:100880000700B84201D00120E5E72878400705D5E8
:100890006068E96820F4E060084360602878000739
:1008A00006D56068296920F4605040EAC1006060A4
:1008B00000F038F86168084AC1F30311515CC84080
:1008C0000649086006480068FFF706FF0020C2E7F7
:1008D00000200240001002408C1600081800002082
:1008E000100000200448054900684968044AC1F323
:1008F0000221515CC84070471800002000100240DF
:100900009C1600080448054900684968044AC1F378
:10091000C221515CC84070471800002000100240FE
:100920009C1600080E4A51680E4801F00C03042B77
:1009300011D0082B0FD10C48C1F38343C903C05C0D
:100940000AD55168084AC1F34041921E515C054ADC
:100950005043B0FBF1F07047044948437047000032
:100960000010024000127A007C16000800093D00C9
:100970002DE9F84F040070D02078C04DC00749D051
:100980006868C0F38100012807D06868C0F381005F
:10099000022809D16868C00306D52868800339D5C4
:1009A00060680028E7D035E06068B0F5803F0BD084
:1009B00010B1B0F5A02F11D0286820F48030286045
:1009C000286820F4802002E0286840F48030286005
:1009D000606890B1FFF760FE06460AE0286840F4C0
:1009E00080202860F0E700BFFFF756FE801B6428D8
:1009F00073D828688003F7D50CE0FFF74DFE064654
:100A000005E000BFFFF748FE801B6428F0D8286887
:100A10008003F7D420789A4E80074FF001094FF0F9
:100A2000000839D5686810F00C0F07D06868C0F36B
:100A30008100022809D16868C00306D428688007AD
:100A400014D52069012808D110E02069B0B1C6F89A
:100A50000090FFF721FE074605E00AE1FFF71CFEC4
:100A6000C01B0228C4D828688007F7D528686169A8
:100A700020F0F80040EAC10028600DE0C6F80080D0
:100A8000FFF70AFE074604E0FFF706FEC01B022838
:100A900023D828688007F7D4207800072CD5794818
:100AA000A169D9B1C0F80090FFF7F6FD074604E050
:100AB000FFF7F2FDC01B02280FD8686A8007F7D540
:100AC00071484FF4FA510068B0FBF1F0009000BF9C
:100AD0000098411E0091FAD20EE080E0C0F800803C
:100AE000FFF7DAFD074604E0FFF7D6FDC01B02283A
:100AF00075D8686A8007F7D42078400760D5E86920
:100B00000027C00008D4E86940F08050E861E86937
:100B1000012700F0805000905C480168C90513D49B
:100B20000168834641F480710160FFF7B5FD82469C
:100B300006E000BFFFF7B0FDA0EB0A0064284ED826
:100B4000DBF80000C005F5D5E06801280AD008B13F
:100B5000052813D0286A20F001002862286A20F0B6
:100B6000040002E0286A40F001002862E06841F2D7
:100B7000883B98B1FFF790FD82460BE0286A40F071
:100B800004002862EEE700BFFFF786FDA0EB0A0134
:100B900059455AD8286A8007F6D50CE0FFF77CFD46
:100BA000824605E0FFF778FDA0EB0A0159454CD8D5
:100BB000286A8007F6D41FB1E86920F08050E86108
:100BC000E06988B36968C1F38101022944D0022831
:100BD000C6F8608004D0FFF75FFD044638E034E0DB
:100BE000FFF75AFD074604E0FFF756FDC01B022839
:100BF0002BD828688001F7D4206AB0F5803F05D152
:100C00006868A16820F4003008436860D4E90801EE
:100C10000843696821F4741108436860C6F860905D
:100C2000FFF73AFD044606E025E000BFFFF734FD7C
:100C3000001B022809D828688001F7D51BE000BFF7
:100C4000FFF72AFD001B022802D90320BDE8F88F18
:100C500028688001F4D40EE00128F7D06868226A81
:100C600000F48031914204D1616A00F4701088422E
:100C700001D00120EAE70020E8E700000010024070
:100C800000004242800442421800002000700040F0
:100C900010B5401EB0F1807F01D3012010BD4FF090
:100CA000E02460610F21601700F002FC0020A061C9
:100CB00007202061002010BD70B590F83C20012A6B
:100CC0002CD0012480F83C40022280F83D200368AB
:100CD0005A689D6822F070060A6832435A60104BC9
:100CE00002689A420ED00F4B9A420BD0B2F1804F5D
:100CF00008D00D4B9A4205D00C4B9A4202D00C4BB7
:100D00009A4204D1496825F080031943916080F824
:100D10003D40002180F83C10084670BD022070BDA7
:100D2000002C014000340140000400400008004055
:100D3000000C004010B5040003D094F83D0010B141
:100D400007E0012010BD002084F83C00204600F0A0
:100D50001FF8022084F83D00211D206800F082FA6F
:100D6000012084F8460084F83E0084F83F0084F8AF
:100D7000400084F8410084F8420084F8430084F87D
:100D8000440084F8450084F83D00002010BD0000B8
:100D900008B50068B0F1804F08D10548C16941F03D
:100DA0000101C161C06900F00100009008BD0000B0
:100DB0000010024090F83D10012901D00120704739
:100DC000022180F83D1000680E4988420ED00E497D
:100DD00088420BD0B0F1804F08D00C49884205D032
:100DE0000B49884202D00B49884204D1816801F046
:100DF0000701062903D0016841F0010101600020CC
:100E000070470000002C0140003401400004004005
:100E100000080040000C004001680A6A41F211130A
:100E20001A4207D10A6A9B101A4203D10A6822F0BB
:100E300001020A60012180F83D100020704770B562
:100E4000044690F83C000025012817D0012684F8BC
:100E50003C60022084F83D002068826822F077021E
:100E600022F47F4282600868502838D00DDC2028A8
:100E70004FD005DC90B3102811D14AE0022070BD9C
:100E8000302846D040280AD13BE060282FD0702877
:100E90000DD0B0F5805F03D0B0F5005F12D0012512
:100EA00084F83D60002084F83C00284670BDCB6883
:100EB000D1E90121206800F01BFA2068816841F027
:100EC000770109E0CB68D1E90121206800F010FA30
:100ED0002068816841F480418160E1E719E0CA68D7
:100EE0004968206800F016FA5021206806E0CA68B8
:100EF0004968206800F01FFA6021206800F002FABB
:100F0000CEE7CA684968206800F004FA40212068EA
:100F1000F4E7226801461046F0E770B5040004D0FB
:100F200094F84100002510B106E0012070BD84F85E
:100F30004050204600F024F8242084F84100206826
:100F4000C16821F40051C160204600F007FA206812
:100F5000016921F4904101612068416921F02A0171
:100F600041612068C16841F40051C160656420207E
:100F700084F8410084F842006563002070BD0000E1
:100F800030B585B000240094019402940394006865
:100F90001449884224D11448816941F48041816117
:100FA000816901F480410491816941F0040181610A
:100FB00080690E4D00F0040004904FF40070009022
:100FC000022001900320039069462846FFF75EFA4D
:100FD0002815CDE90004694628460294FFF756FA21
:100FE00005B030BD0038014000100240000801404B
:100FF0002DE9F843044690F841001F4616460D4679
:10100000202802D00220BDE8F8837DB176B100200F
:101010006064212084F84100FFF73EFBA6848046EF
:10102000E684A068B0F5805F02D003E00120EAE723
:10103000206910B12E4600250EE000260CE080212C
:10104000204600F0E7F9A0B9AEB116F8010B21680F
:101050004860E08C401EE084E08C43464FF0000284
:1010600000970028EBD14FF04001204600F0D2F964
:1010700030B10320C7E735F8020BC0F30800E6E7FC
:10108000202084F841000020BDE7FEE72DE9F04371
:1010900085B000242148009401940294039481694E
:1010A00041F020018161816901F020010491816991
:1010B00041F004018161816901F0040104918169B9
:1010C00041F0100181618069DFF8548000F0100068
:1010D0004FF480750490002229464046FFF7D7FA66
:1010E000DFF840906F00002239464846FFF7CFFAFC
:1010F0000095022601250396CDE901546946404634
:10110000FFF7C4F900970396CDE9015469464846B4
:10111000FFF7BCF905B0BDE8F08300000010024005
:10112000000801400010014010B586B000241648A8
:10113000009401940294039404944FF08041059428
:1011400001604721C0E901144FF6FF71C0E90314A3
:101150008461FFF7EFFD08B1FFF783F94FF480508A
:10116000009069460848FFF76AFE08B1FFF779F971
:10117000049404A904480594FFF79EFD002801D0BB
:10118000FFF76FF906B010BD300000200C4810B515
:101190000A4901604FF4E1314160002181600C2275
:1011A000C160C0E904128161C161FFF7B6FE002889
:1011B00003D0BDE81040FFF754B910BD003801401E
:1011C00078000020FEE7FEE77047000070B54FF69C
:1011D000FA75094E281A84B2306844623046FFF727
:1011E000E9FD306801E0416A8CB2AC42FBD3BDE856
:1011F00070400148FFF710BE300000207047FFF735
:1012000051BA30B58FB028216846FEF7B6FF1421D9
:101210000AA8FEF7B2FF01210804CDE9001000245E
:10122000029402250491CDE907504FF4E010099093
:101230006846FFF79DFB08B172B6FEE70F20CDE9C7
:101240000A054FF48060CDE90C4002210AA80E94F3
:10125000FFF7B2FA002801D072B6FEE70FB030BD3A
:1012600070470000F0B502681C4B1D4D1D4E1E4F0F
:101270001E4C4FF0804C984209D0A04207D06045E8
:1012800005D0A84203D0B04201D0B84204D122F028
:10129000700E4A6842EA0E02984209D0A04207D076
:1012A000604505D0A84203D0B04201D0B84203D176
:1012B00022F44075CA682A434D6922F080022A430D
:1012C00002608A68C2620A688262984201D0A042C3
:1012D00001D10969016301214161F0BD002C014088
:1012E0000004004000080040000C004000340140B1
:1012F00010B5846842EA032224F47F440A4322435F
:10130000826010BD826822F070020A4342F0070139
:101310008160704710B5036A046A24F00104046216
:10132000846924F0F00444EA021423F00A020A4318
:101330008461026210BD10B5036A046A24F01004CF
:101340000462846923F0A00324F4704444EA023266
:1013500043EA01118261016210BD000070B50446CC
:1013600000680169E26821F440511143016121697B
:10137000A0680843616908432168CA6841F20C63A8
:101380009A430243CA6020684169A26921F440710E
:10139000114341611E492068884202D1FFF7B2FA29
:1013A00001E0FFF79FFA00EBC00101EB001260685B
:1013B00064218000B2FBF0F3B3FBF1F36FF0180689
:1013C0007343B2FBF0F5B2FBF0F605EB8305322375
:1013D00003EB0515B5FBF1F5B6FBF1F605F0F005ED
:1013E00005EB0615B2FBF0F6B2FBF0F0B0FBF1F046
:1013F0006FF01802504306EB800003EB0010B0FBC7
:10140000F1F0216800F00F002844886070BD0000F2
:10141000003801402DE9F041984617460E46044633
:10142000069D27E0681C25D02DB1FFF735F9A0EB0C
:101430000800A8421ED920680C3050E8001F21F493
:10144000D07140E80012002AF5D12068143050E82D
:10145000001F21F0010140E80012002AF5D12020F0
:1014600084F8410084F84200002084F84000032002
:10147000BDE8F0812068006836EA000004D0002052
:10148000B842CFD00020F3E70120F9E7FEE70000E3
:101490000FB4054B10B503A9044A029800F028F8D0
:1014A00010BC5DF814FB0000451600081C0000206D
:1014B0000907090E002804DB00F1E02080F8001481
:1014C000704700F00F0000F1E02080F8141D704715
:1014D00002E008C8121F08C1002AFAD170477047FD
:1014E000002001E001C1121F002AFBD1704700005B
:1014F0002DE9FF4F89B09B460446002506E02528CC
:101500000BD05A460B999047641C6D1C207800281C
:10151000F5D10DB02846BDE8F08F0027B84601226E
:10152000474900E0074314F8013F203B02FA03F06B
:101530000842F7D120782E2819D114F8010F47F06E
:1015400004072A280ED06FF02F022078A0F1300176
:1015500009290CD808EB880102EB410100EB0108D6
:10156000641CF2E70A98641C50F8048B0A902078F7
:101570000028CED0642808D0692806D075281ED04F
:101580005A460B9990476D1C58E00A994FF00A098A
:1015900001C90A91002802DA40422D2102E03905F2
:1015A00004D52B218DF82010012103E0F90704D088
:1015B0002021F7E78A4608AE0DE00021FAE70A99F4
:1015C0004FF00A0901C90A91F7E74946FEF7E0FD25
:1015D000303106F8011D0028F7D1ADEB060000F10F
:1015E0002009780701D44FF00108C84502DDA8EBB7
:1015F000090000E000208046002706E008A85A46BF
:10160000C05D0B9990476D1C7F1C5745F6DB04E0CD
:1016100030205A460B9990476D1CB8F10001A8F193
:101620000108F5DC05E016F8010B5A460B999047C6
:101630006D1CB9F10001A9F10109F4DC641C65E736
:101640000928010013B54FF47A7301226946024854
:10165000FFF7CEFC00981CBD78000020FFF72AF8A9
:10166000FFF7CFFDFFF712FDFFF75EFDFFF78EFDE1
:10167000FEF7D2FEFEF76AFEFCE701020203040554
:10168000060708090A0B0C0D0E0F101000000000D1
:101690000000000001020304060708090000000022
:1016A00001020304C416000800000020200000000E
:1016B000D0140008E416000820000020A004000058
:1016C000E01400080000000000000000000000001E
:1016D0000100000010000000000000000024F400E1
:0416E0000000000006
:0400000508000131BD
:00000001FF
